{
  "contractName": "TodoList",
  "abi": [
    {
      "constant": false,
      "inputs": [
        {
          "name": "index",
          "type": "uint256"
        }
      ],
      "name": "deleteTodoItem",
      "outputs": [
        {
          "name": "success",
          "type": "bool"
        }
      ],
      "payable": false,
      "stateMutability": "nonpayable",
      "type": "function"
    },
    {
      "constant": true,
      "inputs": [],
      "name": "getTodoItems",
      "outputs": [
        {
          "name": "",
          "type": "bytes32[]"
        },
        {
          "name": "",
          "type": "bool[]"
        }
      ],
      "payable": false,
      "stateMutability": "view",
      "type": "function"
    },
    {
      "constant": true,
      "inputs": [
        {
          "name": "",
          "type": "uint256"
        }
      ],
      "name": "todoList",
      "outputs": [
        {
          "name": "value",
          "type": "bytes32"
        },
        {
          "name": "active",
          "type": "bool"
        }
      ],
      "payable": false,
      "stateMutability": "view",
      "type": "function"
    },
    {
      "constant": false,
      "inputs": [
        {
          "name": "_value",
          "type": "bytes32"
        }
      ],
      "name": "addTodoItem",
      "outputs": [
        {
          "name": "success",
          "type": "bool"
        }
      ],
      "payable": false,
      "stateMutability": "nonpayable",
      "type": "function"
    }
  ],
  "bytecode": "0x6060604052341561000f57600080fd5b61060a8061001e6000396000f300606060405260043610610062576000357c0100000000000000000000000000000000000000000000000000000000900463ffffffff16806312f616a2146100675780633b73a192146100a257806358c2d46914610154578063695873611461019e575b600080fd5b341561007257600080fd5b61008860048080359060200190919050506101dd565b604051808215151515815260200191505060405180910390f35b34156100ad57600080fd5b6100b56102f6565b604051808060200180602001838103835285818151815260200191508051906020019060200280838360005b838110156100fc5780820151818401526020810190506100e1565b50505050905001838103825284818151815260200191508051906020019060200280838360005b8381101561013e578082015181840152602081019050610123565b5050505090500194505050505060405180910390f35b341561015f57600080fd5b6101756004808035906020019091905050610422565b604051808360001916600019168152602001821515151581526020019250505060405180910390f35b34156101a957600080fd5b6101c3600480803560001916906020019091905050610462565b604051808215151515815260200191505060405180910390f35b600080600080549050831015156101f3576102f0565b8290505b6001600080549050038110156102915760006001820181548110151561021957fe5b906000526020600020906002020160008281548110151561023657fe5b9060005260206000209060020201600082015481600001906000191690556001820160009054906101000a900460ff168160010160006101000a81548160ff02191690831515021790555090505080806001019150506101f7565b60006001600080549050038154811015156102a857fe5b90600052602060002090600202016000808201600090556001820160006101000a81549060ff0219169055505060008054809190600190036102ea91906104f8565b50600191505b50919050565b6102fe61052a565b61030661053e565b600061031061052a565b61031861053e565b6000808054905093508360405180591061032f5750595b90808252806020026020018201604052509250836040518059106103505750595b90808252806020026020018201604052509150600090505b838110156104145760008181548110151561037f57fe5b906000526020600020906002020160000154838281518110151561039f57fe5b9060200190602002019060001916908160001916815250506000818154811015156103c657fe5b906000526020600020906002020160010160009054906101000a900460ff1682828151811015156103f357fe5b90602001906020020190151590811515815250508080600101915050610368565b828295509550505050509091565b60008181548110151561043157fe5b90600052602060002090600202016000915090508060000154908060010160009054906101000a900460ff16905082565b600061046c610552565b82816000019060001916908160001916815250506000816020019015159081151581525050600080548060010182816104a59190610571565b916000526020600020906002020160008390919091506000820151816000019060001916905560208201518160010160006101000a81548160ff0219169083151502179055505050506001915050919050565b8154818355818115116105255760020281600202836000526020600020918201910161052491906105a3565b5b505050565b602060405190810160405280600081525090565b602060405190810160405280600081525090565b6040805190810160405280600080191681526020016000151581525090565b81548183558181151161059e5760020281600202836000526020600020918201910161059d91906105a3565b5b505050565b6105db91905b808211156105d7576000808201600090556001820160006101000a81549060ff0219169055506002016105a9565b5090565b905600a165627a7a72305820a216e00601c906344dd8184b73b6b111627a16561e99bd724e8764341ca860e00029",
  "source": "pragma solidity ^ 0.4 .4;\n\ncontract TodoList {\n    TodoItem[] public todoList;\n\n    struct TodoItem {\n        bytes32 value;\n        bool active;\n    }\n\n    function addTodoItem(bytes32 _value) public returns(bool success) {\n        TodoItem memory todoItem;\n        todoItem.value = _value;\n        todoItem.active = false;\n\n        todoList.push(todoItem);\n        return true;\n    }\n\n    function getTodoItems() public constant returns(bytes32[], bool[]) {\n        uint length = todoList.length;\n\n        bytes32[] memory values = new bytes32[](length);\n        bool[] memory actives = new bool[](length);\n\n        for (uint i = 0; i < length; i++) {\n            values[i] = todoList[i].value;\n            actives[i] = todoList[i].active;\n        }\n\n        return (values, actives);\n    }\n\n    function deleteTodoItem(uint index) public returns(bool success) {\n        if (index >= todoList.length) return;\n\n        for (uint i = index; i < todoList.length - 1; i++) {\n            todoList[i] = todoList[i + 1];\n        }\n\n        delete todoList[todoList.length - 1];\n        todoList.length--;\n        return true;\n    }\n}",
  "sourcePath": "/Users/jeremiezarca/Projets/react-truffle/contracts/TodoList.sol",
  "compiler": {
    "name": "solc",
    "version": "0.4.18+commit.9cf6e910.Emscripten.clang"
  },
  "schemaVersion": "1.0.1",
  "updatedAt": "2017-11-15T19:24:21.210Z"
}